{
  "abi": [
    {
      "inputs": [
        {
          "internalType": "address",
          "name": "target",
          "type": "address"
        }
      ],
      "name": "AddressEmptyCode",
      "type": "error"
    },
    {
      "inputs": [
        {
          "internalType": "address",
          "name": "account",
          "type": "address"
        }
      ],
      "name": "AddressInsufficientBalance",
      "type": "error"
    },
    {
      "inputs": [],
      "name": "ContractCallNotAllowed",
      "type": "error"
    },
    {
      "inputs": [
        {
          "internalType": "uint256",
          "name": "minAmount",
          "type": "uint256"
        },
        {
          "internalType": "uint256",
          "name": "receivedAmount",
          "type": "uint256"
        }
      ],
      "name": "CumulativeSlippageTooHigh",
      "type": "error"
    },
    {
      "inputs": [],
      "name": "FailedInnerCall",
      "type": "error"
    },
    {
      "inputs": [
        {
          "internalType": "uint256",
          "name": "required",
          "type": "uint256"
        },
        {
          "internalType": "uint256",
          "name": "balance",
          "type": "uint256"
        }
      ],
      "name": "InsufficientBalance",
      "type": "error"
    },
    {
      "inputs": [],
      "name": "InvalidAmount",
      "type": "error"
    },
    {
      "inputs": [],
      "name": "InvalidContract",
      "type": "error"
    },
    {
      "inputs": [],
      "name": "InvalidReceiver",
      "type": "error"
    },
    {
      "inputs": [],
      "name": "NativeAssetTransferFailed",
      "type": "error"
    },
    {
      "inputs": [],
      "name": "NoSwapDataProvided",
      "type": "error"
    },
    {
      "inputs": [],
      "name": "NoSwapFromZeroBalance",
      "type": "error"
    },
    {
      "inputs": [],
      "name": "NoTransferToNullAddress",
      "type": "error"
    },
    {
      "inputs": [],
      "name": "NullAddrIsNotAValidSpender",
      "type": "error"
    },
    {
      "inputs": [],
      "name": "NullAddrIsNotAnERC20Token",
      "type": "error"
    },
    {
      "inputs": [],
      "name": "ReentrancyError",
      "type": "error"
    },
    {
      "inputs": [
        {
          "internalType": "address",
          "name": "token",
          "type": "address"
        }
      ],
      "name": "SafeERC20FailedOperation",
      "type": "error"
    },
    {
      "inputs": [],
      "name": "SliceOutOfBounds",
      "type": "error"
    },
    {
      "inputs": [],
      "name": "SliceOverflow",
      "type": "error"
    },
    {
      "anonymous": false,
      "inputs": [
        {
          "indexed": false,
          "internalType": "bytes32",
          "name": "transactionId",
          "type": "bytes32"
        },
        {
          "indexed": false,
          "internalType": "address",
          "name": "dex",
          "type": "address"
        },
        {
          "indexed": false,
          "internalType": "address",
          "name": "fromAssetId",
          "type": "address"
        },
        {
          "indexed": false,
          "internalType": "address",
          "name": "toAssetId",
          "type": "address"
        },
        {
          "indexed": false,
          "internalType": "uint256",
          "name": "fromAmount",
          "type": "uint256"
        },
        {
          "indexed": false,
          "internalType": "uint256",
          "name": "toAmount",
          "type": "uint256"
        },
        {
          "indexed": false,
          "internalType": "uint256",
          "name": "timestamp",
          "type": "uint256"
        }
      ],
      "name": "AssetSwapped",
      "type": "event"
    },
    {
      "anonymous": false,
      "inputs": [
        {
          "indexed": true,
          "internalType": "bytes32",
          "name": "transactionId",
          "type": "bytes32"
        },
        {
          "indexed": false,
          "internalType": "string",
          "name": "integrator",
          "type": "string"
        },
        {
          "indexed": false,
          "internalType": "string",
          "name": "referrer",
          "type": "string"
        },
        {
          "indexed": false,
          "internalType": "address",
          "name": "receiver",
          "type": "address"
        },
        {
          "indexed": false,
          "internalType": "address",
          "name": "fromAssetId",
          "type": "address"
        },
        {
          "indexed": false,
          "internalType": "address",
          "name": "toAssetId",
          "type": "address"
        },
        {
          "indexed": false,
          "internalType": "uint256",
          "name": "fromAmount",
          "type": "uint256"
        },
        {
          "indexed": false,
          "internalType": "uint256",
          "name": "toAmount",
          "type": "uint256"
        }
      ],
      "name": "GenericSwapCompleted",
      "type": "event"
    },
    {
      "anonymous": false,
      "inputs": [
        {
          "indexed": true,
          "internalType": "bytes32",
          "name": "transactionId",
          "type": "bytes32"
        },
        {
          "indexed": false,
          "internalType": "string",
          "name": "integrator",
          "type": "string"
        },
        {
          "indexed": false,
          "internalType": "string",
          "name": "referrer",
          "type": "string"
        },
        {
          "indexed": false,
          "internalType": "address",
          "name": "fromAssetId",
          "type": "address"
        },
        {
          "indexed": false,
          "internalType": "address",
          "name": "toAssetId",
          "type": "address"
        },
        {
          "indexed": false,
          "internalType": "uint256",
          "name": "fromAmount",
          "type": "uint256"
        },
        {
          "indexed": false,
          "internalType": "uint256",
          "name": "toAmount",
          "type": "uint256"
        }
      ],
      "name": "SwappedGeneric",
      "type": "event"
    },
    {
      "anonymous": false,
      "inputs": [
        {
          "indexed": true,
          "internalType": "bytes32",
          "name": "transactionId",
          "type": "bytes32"
        },
        {
          "indexed": false,
          "internalType": "address",
          "name": "receivingAssetId",
          "type": "address"
        },
        {
          "indexed": false,
          "internalType": "address",
          "name": "receiver",
          "type": "address"
        },
        {
          "indexed": false,
          "internalType": "uint256",
          "name": "amount",
          "type": "uint256"
        },
        {
          "indexed": false,
          "internalType": "uint256",
          "name": "timestamp",
          "type": "uint256"
        }
      ],
      "name": "TransferCompleted",
      "type": "event"
    },
    {
      "anonymous": false,
      "inputs": [
        {
          "indexed": true,
          "internalType": "bytes32",
          "name": "transactionId",
          "type": "bytes32"
        },
        {
          "indexed": false,
          "internalType": "address",
          "name": "receivingAssetId",
          "type": "address"
        },
        {
          "indexed": false,
          "internalType": "address",
          "name": "receiver",
          "type": "address"
        },
        {
          "indexed": false,
          "internalType": "uint256",
          "name": "amount",
          "type": "uint256"
        },
        {
          "indexed": false,
          "internalType": "uint256",
          "name": "timestamp",
          "type": "uint256"
        }
      ],
      "name": "TransferRecovered",
      "type": "event"
    },
    {
      "anonymous": false,
      "inputs": [
        {
          "components": [
            {
              "internalType": "bytes32",
              "name": "transactionId",
              "type": "bytes32"
            },
            {
              "internalType": "string",
              "name": "bridge",
              "type": "string"
            },
            {
              "internalType": "string",
              "name": "integrator",
              "type": "string"
            },
            {
              "internalType": "address",
              "name": "referrer",
              "type": "address"
            },
            {
              "internalType": "address",
              "name": "sendingAssetId",
              "type": "address"
            },
            {
              "internalType": "address",
              "name": "receiver",
              "type": "address"
            },
            {
              "internalType": "uint256",
              "name": "minAmount",
              "type": "uint256"
            },
            {
              "internalType": "uint256",
              "name": "destinationChainId",
              "type": "uint256"
            },
            {
              "internalType": "bool",
              "name": "hasSourceSwaps",
              "type": "bool"
            },
            {
              "internalType": "bool",
              "name": "hasDestinationCall",
              "type": "bool"
            }
          ],
          "indexed": false,
          "internalType": "struct IStruct.BridgeData",
          "name": "bridgeData",
          "type": "tuple"
        }
      ],
      "name": "TransferStarted",
      "type": "event"
    },
    {
      "inputs": [
        {
          "internalType": "address",
          "name": "_dex",
          "type": "address"
        }
      ],
      "name": "addDex",
      "outputs": [],
      "stateMutability": "nonpayable",
      "type": "function"
    },
    {
      "inputs": [
        {
          "internalType": "bytes4",
          "name": "_signature",
          "type": "bytes4"
        }
      ],
      "name": "setFunctionApprovalBySignature",
      "outputs": [],
      "stateMutability": "nonpayable",
      "type": "function"
    },
    {
      "inputs": [
        {
          "internalType": "bytes32",
          "name": "_transactionId",
          "type": "bytes32"
        },
        {
          "internalType": "string",
          "name": "_integrator",
          "type": "string"
        },
        {
          "internalType": "string",
          "name": "_referrer",
          "type": "string"
        },
        {
          "internalType": "address payable",
          "name": "_receiver",
          "type": "address"
        },
        {
          "internalType": "uint256",
          "name": "_minAmount",
          "type": "uint256"
        },
        {
          "components": [
            {
              "internalType": "address",
              "name": "callTo",
              "type": "address"
            },
            {
              "internalType": "address",
              "name": "approveTo",
              "type": "address"
            },
            {
              "internalType": "address",
              "name": "sendingAssetId",
              "type": "address"
            },
            {
              "internalType": "address",
              "name": "receivingAssetId",
              "type": "address"
            },
            {
              "internalType": "uint256",
              "name": "fromAmount",
              "type": "uint256"
            },
            {
              "internalType": "bytes",
              "name": "callData",
              "type": "bytes"
            },
            {
              "internalType": "bool",
              "name": "requiresDeposit",
              "type": "bool"
            }
          ],
          "internalType": "struct LibSwap.SwapData[]",
          "name": "_swapData",
          "type": "tuple[]"
        }
      ],
      "name": "swapTokensGeneric",
      "outputs": [
        {
          "internalType": "address",
          "name": "",
          "type": "address"
        }
      ],
      "stateMutability": "payable",
      "type": "function"
    }
  ],
  "bytecode": {
    "object": "0x6080806040523461001657611648908161001c8239f35b600080fdfe6080604052600436101561001257600080fd5b6000803560e01c9081634630a0d81461004a57508063536db266146100455763c561c1481461004057600080fd5b61019d565b610176565b60c03660031901126100eb5767ffffffffffffffff906024358281116100ee576100789036906004016100f2565b916044358481116100ee576100919036906004016100f2565b909461009b610136565b9260a4359182116100eb576100e76100cd88888888886100be3660048b01610145565b95909460843594600435610206565b6040516001600160a01b0390911681529081906020820190565b0390f35b80fd5b5080fd5b9181601f840112156101205782359167ffffffffffffffff8311610120576020838186019501011161012057565b600080fd5b6001600160a01b0381160361012057565b6064359061014382610125565b565b9181601f840112156101205782359167ffffffffffffffff8311610120576020808501948460051b01011161012057565b346101205760203660031901126101205761019b60043561019681610125565b61097b565b005b34610120576020366003190112610120576004356001600160e01b031981168103610120576001600160e01b03191660009081527f7d79ad5da1584bf455d60eb7b5b4c584ee120e2c141575abdc78caf49bc8efc860205260409020805460ff19166001179055005b9495989790929193967fa65bb2f450488ab0858c00edc14abc5297769bf42adb48cfb77752890e8b697b6001815414610404576001905547973489039889116103db576001600160a01b03888116156103f25783156103e0576000198401908482116103db57610285606061027f6102c694888861047e565b016104a0565b61028e81610a74565b918116156103c4575b6102c1906102bc8b8d89896102ac8282610897565b936102b78383610af0565b61053a565b610a74565b61043b565b9a808c1061039f5750928261033c9a9b92897f32653f82ee152f31d3f77bbf90299b1dc9f7b72107e92d6a2d0f66582d544a869897966080610319606061027f61031261034b9b61042c565b888861047e565b9e8f95610327898689610ee3565b610336604061027f838961045e565b9561045e565b013594604051998a998a6104ce565b0390a247828111610384575b5050509061014360007fa65bb2f450488ab0858c00edc14abc5297769bf42adb48cfb77752890e8b697b55565b610397926103919161043b565b90610f89565b388080610357565b6040516309d709cf60e21b81526004810191909152602481018c9052604490fd5b0390fd5b906103d36102c191349061043b565b919050610297565b610416565b604051630503c3ed60e01b8152600490fd5b604051631e4ec46b60e01b8152600490fd5b6040516329f745a760e01b8152600490fd5b634e487b7160e01b600052601160045260246000fd5b6000198101919082116103db57565b919082039182116103db57565b634e487b7160e01b600052603260045260246000fd5b90156104795780359060de1981360301821215610120570190565b610448565b91908110156104795760051b8101359060de1981360301821215610120570190565b356104aa81610125565b90565b908060209392818452848401376000828201840152601f01601f1916010190565b95936104ef60c09894926104fd949c9b9a979c60e08a5260e08a01916104ad565b9187830360208901526104ad565b6001600160a01b0398891660408601529188166060850152909616608083015260a08201520152565b80518210156104795760209160051b010190565b9193929092600185818097141560001461060857606090610573818861056d8561027f6105668561042c565b858561047e565b9861077f565b6000966001600160a01b03968716935b610593575b505050505050505050565b61059c8261042c565b8810156106035788886105b58561027f849c878761047e565b868a8216036105c7575b500197610583565b6105e46105d382610a74565b6105dd848b610526565b519061043b565b89816105f2575b50506105bf565b6105fb92610ee3565b3880896105eb565b610588565b9250505060005b81811061061d575050505050565b61062881838661047e565b60406106456106388284016104a0565b6001600160a01b03161590565b80156106fd575b806106e6575b80610680575b1561067057509061066a869285611098565b0161060f565b51632514e60160e21b8152600490fd5b506106e16106a361069d61069760a0860186610712565b90610745565b90610753565b6001600160e01b03191660009081527f7d79ad5da1584bf455d60eb7b5b4c584ee120e2c141575abdc78caf49bc8efc8602052604090205460ff1690565b610658565b506106f86106f3836104a0565b610a49565b610652565b5061070d6106f3602084016104a0565b61064c565b903590601e1981360301821215610120570180359067ffffffffffffffff82116101205760200191813603831361012057565b906004116101205790600490565b6001600160e01b0319903581811693926004811061077057505050565b60040360031b82901b16169150565b90929160005b818110610793575050509050565b61079e81838761047e565b6040808201356107ad81610125565b6001600160a01b0316158015610811575b806107ff575b806107e3575b156106705750906107dd60019285611098565b01610785565b506107fa6106a361069d61069760a0860186610712565b6107ca565b5061080c6106f3836104a0565b6107c4565b506108216106f3602084016104a0565b6107be565b634e487b7160e01b600052604160045260246000fd5b6040810190811067ffffffffffffffff82111761085857604052565b610826565b90601f8019910116810190811067ffffffffffffffff82111761085857604052565b67ffffffffffffffff81116108585760051b60200190565b6108a08261087f565b916108ae604051938461085d565b808352601f196108bd8261087f565b0136602085013760005b8181106108d45750505090565b60606108e182848661047e565b01356108ec81610125565b6108f581610a74565b6108ff8387610526565b526001600160a01b031615610917575b6001016108c7565b6109218185610526565b51903482039182116103db5760019161093a8287610526565b52905061090f565b6001600160a01b031660009081527f7d79ad5da1584bf455d60eb7b5b4c584ee120e2c141575abdc78caf49bc8efc76020526040902090565b6001600160a01b038116908115610a3757803b15610a375760ff61099e82610942565b5416610a33576109ad90610942565b805460ff191660011790557f7d79ad5da1584bf455d60eb7b5b4c584ee120e2c141575abdc78caf49bc8efcb805490680100000000000000008210156108585760018201808255821015610479576000527fc8c330445185738a85c350c82846481593de1c6208b21dcb0c057f5e1e05a6b60180546001600160a01b0319169091179055565b5050565b6040516303777f6960e51b8152600490fd5b610a5460ff91610942565b541690565b90816020910312610120575190565b6040513d6000823e3d90fd5b6000906001600160a01b031680610a8b5750504790565b6020602491604051928380926370a0823160e01b82523060048301525afa918215610ae15791610ab9575090565b6104aa915060203d8111610ada575b610ad2818361085d565b810190610a59565b503d610ac8565b610a68565b8015150361012057565b90600090815b818110610b035750505050565b610b0e81838661047e565b60c0810135610b1c81610ae6565b610b2a575b50600101610af6565b60409060808282013591610b3d83610125565b0135908115610c14576001600160a01b03811680610b785750503410610b6857506001905b90610b21565b5163162908e360e11b8152600490fd5b83516370a0823160e01b81523360048083019190915293949293926020929091908390829060249082905afa928315610ae1578993610bf5575b5050848210610bd45750505060019291610bcf9130903390610c25565b610b62565b5163cf47918160e01b81529182019384526020840152918291506040010390fd5b610c0c929350803d10610ada57610ad2818361085d565b903880610bb2565b825163162908e360e11b8152600490fd5b6001600160a01b0390811692908315610d4257811615610d30576040516370a0823160e01b8082526001600160a01b03831660048301526020949092908583602481845afa938415610ae157878794600096610d07575b50610c8d9084610cb3979885610d54565b6040519081526001600160a01b0390921660048301529092839190829081906024820190565b03915afa908115610ae157610cd193600092610cea575b505061043b565b03610cd857565b60405163162908e360e11b8152600490fd5b610d009250803d10610ada57610ad2818361085d565b3880610cca565b610cb396509084610d27610c8d93883d8a11610ada57610ad2818361085d565b97505090610c7c565b6040516321f7434560e01b8152600490fd5b60405163346fafc360e21b8152600490fd5b6040516323b872dd60e01b60208201526001600160a01b03928316602482015292909116604483015260648083019390935291815260a081019181831067ffffffffffffffff8411176108585761014392604052610dc2565b9081602091031261012057516104aa81610ae6565b600080610deb9260018060a01b03169360208151910182865af1610de4610e50565b9083610e80565b8051908115159182610e19575b5050610e015750565b60249060405190635274afe760e01b82526004820152fd5b610e2c9250602080918301019101610dad565b153880610df8565b67ffffffffffffffff811161085857601f01601f191660200190565b3d15610e7b573d90610e6182610e34565b91610e6f604051938461085d565b82523d6000602084013e565b606090565b90610ea75750805115610e9557805190602001fd5b604051630a12f52160e11b8152600490fd5b81511580610eda575b610eb8575090565b604051639996b31560e01b81526001600160a01b039091166004820152602490fd5b50803b15610eb0565b6001600160a01b039081169392919084610f035750610143929350610f89565b168015610d30576040516370a0823160e01b815230600482015293602085602481845afa948515610ae157600095610f69575b50848311610f4957610143939450610feb565b60405163cf47918160e01b81526004810184905260248101869052604490fd5b610f8291955060203d8111610ada57610ad2818361085d565b9338610f36565b6001600160a01b03168015610d3057478211610fca57600080809381935af1610fb0610e50565b5015610fb857565b604051635a04673760e01b8152600490fd5b5060405163cf47918160e01b81526004810191909152476024820152604490fd5b60405163a9059cbb60e01b60208201526001600160a01b039092166024830152604480830193909352918152608081019167ffffffffffffffff8311828410176108585761014392604052610dc2565b908092918237016000815290565b60005b83811061105c5750506000910152565b818101518382015260200161104c565b6040916020825261108c8151809281602086015260208686019101611049565b601f01601f1916010190565b9190916110b46110b06110aa856104a0565b3b151590565b1590565b610a3757608083013590811561127d5760408401906110d5610638836104a0565b600090156112775750825b6110ec6102bc846104a0565b9060608701946110fe6102bc876104a0565b928115611244575b82811061122357506000809161111b8a6104a0565b9061112960a08c018c610712565b919061113a6040518094819361103b565b03925af196611147610e50565b97156111ff577f7bfdfdb5e3a3776976e53cb0607060f54c5312701c8cba1155cc4d5394440b38969750906111f393929161119961119361119361118d6102bc8b6104a0565b936104a0565b976104a0565b92808211156111f8576111ab9161043b565b915b6040519687964295889360c0959298979693919860e0860199865260018060a01b0392838092166020880152166040860152166060840152608083015260a08201520152565b0390a1565b50916111ad565b6103c061120b896114dd565b60405162461bcd60e51b81529182916004830161106c565b60405163cf47918160e01b8152600481018490526024810191909152604490fd5b61127283611260611254896104a0565b6001600160a01b031690565b61126c60208d016104a0565b9061128f565b611106565b926110e0565b60405163391b81e760e21b8152600490fd5b916001600160a01b038084169081156113345783161561132257604051636eb1769f60e11b81523060048201526001600160a01b038416602482015290602090829060449082905afa908115610ae157600091611304575b50106112f1575050565b816112ff826101439461133b565b611446565b61131c915060203d8111610ada57610ad2818361085d565b386112e7565b6040516363ba9bff60e01b8152600490fd5b5050505050565b60405163095ea7b360e01b602082018181526001600160a01b038516602484015260006044840152909391929183606481015b0391611382601f199384810187528661085d565b84516001600160a01b03851691600091829182855af1906113a1610e50565b82611414575b5081611409575b50156113bb575050505050565b60405160208101959095526001600160a01b0316602485015260006044850152606490810184526113ff936113fa916113f4908261085d565b82610dc2565b610dc2565b3880808080611334565b90503b1515386113ae565b8051919250811591821561142c575b505090386113a7565b61143f9250602080918301019101610dad565b3880611423565b60405163095ea7b360e01b602082018181526001600160a01b038516602484015260001960448401529093919291836064810161136e565b6020818303126101205780519067ffffffffffffffff8211610120570181601f820112156101205780516114b181610e34565b926114bf604051948561085d565b81845260208284010111610120576104aa9160208085019101611049565b9060448251106115bb5781519160031990818401908482116103db5781611503816115f6565b106115a957805161151383611604565b1161159757816115435750505090506104aa60405160008152602081016040525b6020808251830101910161147e565b9390600460405193601f8316801560051b9182828801019586010197010101945b80831061158457508252601f01601f19166040529091506104aa90611534565b8551835260209586019590920191611564565b604051633b99b53d60e01b8152600490fd5b6040516323d5783d60e11b8152600490fd5b90506040516115c98161083c565b601d81527f5472616e73616374696f6e2072657665727465642073696c656e746c79000000602082015290565b90601f82018092116103db57565b60040190816004116103db5756fea2646970667358221220d9dc8c66602570468de090e115d57005b0a2751fe925c839bc859712e6f939e564736f6c63430008140033",
    "linkReferences": {}
  },
  "methodIdentifiers": {
    "addDex(address)": "536db266",
    "setFunctionApprovalBySignature(bytes4)": "c561c148",
    "swapTokensGeneric(bytes32,string,string,address,uint256,(address,address,address,address,uint256,bytes,bool)[])": "4630a0d8"
  },
  "id": 51
}