{
  "abi": [
    {
      "inputs": [],
      "name": "getUniswapRouterAddress",
      "outputs": [
        {
          "internalType": "address",
          "name": "",
          "type": "address"
        }
      ],
      "stateMutability": "view",
      "type": "function"
    },
    {
      "inputs": [],
      "name": "getUsdcAddress",
      "outputs": [
        {
          "internalType": "address",
          "name": "",
          "type": "address"
        }
      ],
      "stateMutability": "view",
      "type": "function"
    },
    {
      "inputs": [
        {
          "internalType": "address",
          "name": "_token",
          "type": "address"
        },
        {
          "internalType": "uint256",
          "name": "_amount",
          "type": "uint256"
        }
      ],
      "name": "getValueInUSD",
      "outputs": [
        {
          "internalType": "uint256",
          "name": "valueInUSD",
          "type": "uint256"
        }
      ],
      "stateMutability": "view",
      "type": "function"
    },
    {
      "inputs": [
        {
          "internalType": "address",
          "name": "_router",
          "type": "address"
        }
      ],
      "name": "setUniswapRouterAddress",
      "outputs": [],
      "stateMutability": "nonpayable",
      "type": "function"
    },
    {
      "inputs": [
        {
          "internalType": "address",
          "name": "_usdcAddress",
          "type": "address"
        }
      ],
      "name": "setUsdcAddress",
      "outputs": [],
      "stateMutability": "nonpayable",
      "type": "function"
    }
  ],
  "bytecode": {
    "object": "0x60808060405234610016576103ac908161001c8239f35b600080fdfe60806040818152600436101561001457600080fd5b600091823560e01c908163bc6f204e1461012b57508063d38bcdee146100ed578063d39ac0cb146100c5578063db15d185146100845763dbe0b5b21461005957600080fd5b3461008057816003193601126100805760075490516001600160a01b039091168152602090f35b5080fd5b82346100c25760203660031901126100c2576001600160a01b036100a66102fd565b166bffffffffffffffffffffffff60a01b600654161760065580f35b80fd5b503461008057816003193601126100805760065490516001600160a01b039091168152602090f35b82346100c25760203660031901126100c2576001600160a01b0361010f6102fd565b166bffffffffffffffffffffffff60a01b600754161760075580f35b8284346100c257816003193601126100c2576101456102fd565b60065467ffffffffffffffff92916001600160a01b039182169060608701858111888210176102e95786526002875260209687810191873684378151156102d557918486949293168152846007541661019d84610350565b52875194859363d06ca61f60e01b8552604485019060243560048701528a60248701525180915260648501929186905b8c8383106102b557505050505082809103915afa9182156102aa578092610203575b50506101fb9150610350565b519051908152f35b9091503d8082843e6102158184610318565b8201918581840312610080578051908482116102a6570182601f82011215610080578051938411610292578360051b9185519461025488850187610318565b855286808601938301019384116100c257509085809201905b83821061028357505050506101fb9084806101ef565b8151815290820190820161026d565b634e487b7160e01b82526041600452602482fd5b8280fd5b8451903d90823e3d90fd5b8451821686528a98508997509485019493909301926001909101906101cd565b634e487b7160e01b86526032600452602486fd5b634e487b7160e01b85526041600452602485fd5b600435906001600160a01b038216820361031357565b600080fd5b90601f8019910116810190811067ffffffffffffffff82111761033a57604052565b634e487b7160e01b600052604160045260246000fd5b8051600110156103605760400190565b634e487b7160e01b600052603260045260246000fdfea26469706673582212203615d91104a64f076e9a3efdd0703c1aa69bce3348582413bde71b3a838af53564736f6c63430008140033",
    "linkReferences": {}
  },
  "methodIdentifiers": {
    "getUniswapRouterAddress()": "d39ac0cb",
    "getUsdcAddress()": "dbe0b5b2",
    "getValueInUSD(address,uint256)": "bc6f204e",
    "setUniswapRouterAddress(address)": "db15d185",
    "setUsdcAddress(address)": "d38bcdee"
  },
  "id": 54
}