{
  "abi": [
    {
      "inputs": [
        {
          "internalType": "address",
          "name": "token",
          "type": "address"
        }
      ],
      "name": "getPriceFeedForToken",
      "outputs": [
        {
          "internalType": "address",
          "name": "priceFeed",
          "type": "address"
        }
      ],
      "stateMutability": "view",
      "type": "function"
    },
    {
      "inputs": [
        {
          "internalType": "address",
          "name": "token",
          "type": "address"
        },
        {
          "internalType": "uint256",
          "name": "amount",
          "type": "uint256"
        }
      ],
      "name": "getValueInUSD",
      "outputs": [
        {
          "internalType": "uint256",
          "name": "valueInUSD",
          "type": "uint256"
        }
      ],
      "stateMutability": "view",
      "type": "function"
    },
    {
      "inputs": [
        {
          "internalType": "address",
          "name": "_token",
          "type": "address"
        },
        {
          "internalType": "address",
          "name": "_priceFeed",
          "type": "address"
        }
      ],
      "name": "setPriceFeed",
      "outputs": [
        {
          "internalType": "address",
          "name": "",
          "type": "address"
        }
      ],
      "stateMutability": "nonpayable",
      "type": "function"
    }
  ],
  "bytecode": {
    "object": "0x608080604052346100165761036e908161001c8239f35b600080fdfe608060409080825260048036101561001657600080fd5b600091823560e01c90816312984b0b146102975750806376e112861461023f5763bc6f204e1461004557600080fd5b3461023b578260031936011261023b5761005d6102ce565b92602480359360018060a01b03809616808252602096828852848320541680156101ef579060a08692865193848092633fabe5a360e21b82525afa9182156101615783926101a2575b508282131561016b579087869286519384809263313ce56760e01b82525afa918215610161578392610124575b508681029681880414901517156101135760ff16604d811161011357600a0a938415610103575050505191048152f35b634e487b7160e01b825260129052fd5b50634e487b7160e01b815260118452fd5b9091508781813d831161015a575b61013c81836102e9565b81010312610156575160ff811681036101565790386100d3565b8280fd5b503d610132565b85513d85823e3d90fd5b845162461bcd60e51b815280870189905260128186015271496e76616c6964207072696365206461746160701b6044820152606490fd5b90915060a0813d82116101e7575b816101bd60a093836102e9565b81010312610156576101ce81610321565b506101df6080898301519201610321565b5090386100a6565b3d91506101b0565b845162461bcd60e51b81528087018990526021818601527f507269636566656564206e6f7420617661696c61626c6520666f7220746f6b656044820152603760f91b6064820152608490fd5b5080fd5b82843461023b578060031936011261023b576102596102ce565b6001600160a01b036024358181169392908490036102935716835260208381529281902080546001600160a01b0319168317905551908152f35b8480fd5b83908534610156576020366003190112610156576020926001600160a01b039190826102c16102ce565b1681528085522054168152f35b600435906001600160a01b03821682036102e457565b600080fd5b90601f8019910116810190811067ffffffffffffffff82111761030b57604052565b634e487b7160e01b600052604160045260246000fd5b519069ffffffffffffffffffff821682036102e45756fea2646970667358221220dad060a8d813b7909238f5acc7081e072dac0550115e19955906350b90e6f93564736f6c63430008140033",
    "linkReferences": {}
  },
  "methodIdentifiers": {
    "getPriceFeedForToken(address)": "12984b0b",
    "getValueInUSD(address,uint256)": "bc6f204e",
    "setPriceFeed(address,address)": "76e11286"
  },
  "id": 55
}