{
  "abi": [
    {
      "inputs": [
        {
          "internalType": "string",
          "name": "_name",
          "type": "string"
        },
        {
          "internalType": "string",
          "name": "_symbol",
          "type": "string"
        },
        {
          "internalType": "uint256",
          "name": "_managementFeeRate",
          "type": "uint256"
        },
        {
          "internalType": "uint256",
          "name": "_performanceFeeRate",
          "type": "uint256"
        },
        {
          "internalType": "address",
          "name": "_genericSwapFacet",
          "type": "address"
        },
        {
          "internalType": "address",
          "name": "_pricefeedFacet",
          "type": "address"
        },
        {
          "internalType": "address",
          "name": "_diamond",
          "type": "address"
        }
      ],
      "stateMutability": "nonpayable",
      "type": "constructor"
    },
    {
      "inputs": [
        {
          "internalType": "address",
          "name": "target",
          "type": "address"
        }
      ],
      "name": "AddressEmptyCode",
      "type": "error"
    },
    {
      "inputs": [
        {
          "internalType": "address",
          "name": "account",
          "type": "address"
        }
      ],
      "name": "AddressInsufficientBalance",
      "type": "error"
    },
    {
      "inputs": [
        {
          "internalType": "address",
          "name": "spender",
          "type": "address"
        },
        {
          "internalType": "uint256",
          "name": "allowance",
          "type": "uint256"
        },
        {
          "internalType": "uint256",
          "name": "needed",
          "type": "uint256"
        }
      ],
      "name": "ERC20InsufficientAllowance",
      "type": "error"
    },
    {
      "inputs": [
        {
          "internalType": "address",
          "name": "sender",
          "type": "address"
        },
        {
          "internalType": "uint256",
          "name": "balance",
          "type": "uint256"
        },
        {
          "internalType": "uint256",
          "name": "needed",
          "type": "uint256"
        }
      ],
      "name": "ERC20InsufficientBalance",
      "type": "error"
    },
    {
      "inputs": [
        {
          "internalType": "address",
          "name": "approver",
          "type": "address"
        }
      ],
      "name": "ERC20InvalidApprover",
      "type": "error"
    },
    {
      "inputs": [
        {
          "internalType": "address",
          "name": "receiver",
          "type": "address"
        }
      ],
      "name": "ERC20InvalidReceiver",
      "type": "error"
    },
    {
      "inputs": [
        {
          "internalType": "address",
          "name": "sender",
          "type": "address"
        }
      ],
      "name": "ERC20InvalidSender",
      "type": "error"
    },
    {
      "inputs": [
        {
          "internalType": "address",
          "name": "spender",
          "type": "address"
        }
      ],
      "name": "ERC20InvalidSpender",
      "type": "error"
    },
    {
      "inputs": [
        {
          "internalType": "address",
          "name": "receiver",
          "type": "address"
        },
        {
          "internalType": "uint256",
          "name": "assets",
          "type": "uint256"
        },
        {
          "internalType": "uint256",
          "name": "max",
          "type": "uint256"
        }
      ],
      "name": "ERC4626ExceededMaxDeposit",
      "type": "error"
    },
    {
      "inputs": [
        {
          "internalType": "address",
          "name": "receiver",
          "type": "address"
        },
        {
          "internalType": "uint256",
          "name": "shares",
          "type": "uint256"
        },
        {
          "internalType": "uint256",
          "name": "max",
          "type": "uint256"
        }
      ],
      "name": "ERC4626ExceededMaxMint",
      "type": "error"
    },
    {
      "inputs": [
        {
          "internalType": "address",
          "name": "owner",
          "type": "address"
        },
        {
          "internalType": "uint256",
          "name": "shares",
          "type": "uint256"
        },
        {
          "internalType": "uint256",
          "name": "max",
          "type": "uint256"
        }
      ],
      "name": "ERC4626ExceededMaxRedeem",
      "type": "error"
    },
    {
      "inputs": [
        {
          "internalType": "address",
          "name": "owner",
          "type": "address"
        },
        {
          "internalType": "uint256",
          "name": "assets",
          "type": "uint256"
        },
        {
          "internalType": "uint256",
          "name": "max",
          "type": "uint256"
        }
      ],
      "name": "ERC4626ExceededMaxWithdraw",
      "type": "error"
    },
    {
      "inputs": [],
      "name": "FailedInnerCall",
      "type": "error"
    },
    {
      "inputs": [],
      "name": "MathOverflowedMulDiv",
      "type": "error"
    },
    {
      "inputs": [
        {
          "internalType": "address",
          "name": "token",
          "type": "address"
        }
      ],
      "name": "SafeERC20FailedOperation",
      "type": "error"
    },
    {
      "anonymous": false,
      "inputs": [
        {
          "indexed": true,
          "internalType": "address",
          "name": "owner",
          "type": "address"
        },
        {
          "indexed": true,
          "internalType": "address",
          "name": "spender",
          "type": "address"
        },
        {
          "indexed": false,
          "internalType": "uint256",
          "name": "value",
          "type": "uint256"
        }
      ],
      "name": "Approval",
      "type": "event"
    },
    {
      "anonymous": false,
      "inputs": [
        {
          "indexed": false,
          "internalType": "uint256",
          "name": "dailyFee",
          "type": "uint256"
        }
      ],
      "name": "DailyFeeCalculated",
      "type": "event"
    },
    {
      "anonymous": false,
      "inputs": [
        {
          "indexed": true,
          "internalType": "address",
          "name": "sender",
          "type": "address"
        },
        {
          "indexed": true,
          "internalType": "address",
          "name": "owner",
          "type": "address"
        },
        {
          "indexed": false,
          "internalType": "uint256",
          "name": "assets",
          "type": "uint256"
        },
        {
          "indexed": false,
          "internalType": "uint256",
          "name": "shares",
          "type": "uint256"
        }
      ],
      "name": "Deposit",
      "type": "event"
    },
    {
      "anonymous": false,
      "inputs": [
        {
          "indexed": true,
          "internalType": "address",
          "name": "newDiamond",
          "type": "address"
        }
      ],
      "name": "DiamondSet",
      "type": "event"
    },
    {
      "anonymous": false,
      "inputs": [
        {
          "indexed": true,
          "internalType": "address",
          "name": "facet",
          "type": "address"
        },
        {
          "indexed": false,
          "internalType": "bytes4[]",
          "name": "selectors",
          "type": "bytes4[]"
        }
      ],
      "name": "FacetSelectorsSet",
      "type": "event"
    },
    {
      "anonymous": false,
      "inputs": [
        {
          "indexed": false,
          "internalType": "uint256",
          "name": "usdcBalance",
          "type": "uint256"
        },
        {
          "indexed": false,
          "internalType": "uint256",
          "name": "accumulatedFee",
          "type": "uint256"
        }
      ],
      "name": "InsufficientUSDCBalance",
      "type": "event"
    },
    {
      "anonymous": false,
      "inputs": [
        {
          "indexed": false,
          "internalType": "uint256",
          "name": "feeAmount",
          "type": "uint256"
        }
      ],
      "name": "ManagementFeeCharged",
      "type": "event"
    },
    {
      "anonymous": false,
      "inputs": [
        {
          "indexed": false,
          "internalType": "uint256",
          "name": "newRate",
          "type": "uint256"
        }
      ],
      "name": "ManagementFeeRateUpdated",
      "type": "event"
    },
    {
      "anonymous": false,
      "inputs": [
        {
          "indexed": true,
          "internalType": "address",
          "name": "from",
          "type": "address"
        },
        {
          "indexed": true,
          "internalType": "address",
          "name": "to",
          "type": "address"
        },
        {
          "indexed": false,
          "internalType": "uint256",
          "name": "value",
          "type": "uint256"
        }
      ],
      "name": "Transfer",
      "type": "event"
    },
    {
      "anonymous": false,
      "inputs": [
        {
          "indexed": true,
          "internalType": "address",
          "name": "sender",
          "type": "address"
        },
        {
          "indexed": true,
          "internalType": "address",
          "name": "receiver",
          "type": "address"
        },
        {
          "indexed": true,
          "internalType": "address",
          "name": "owner",
          "type": "address"
        },
        {
          "indexed": false,
          "internalType": "uint256",
          "name": "assets",
          "type": "uint256"
        },
        {
          "indexed": false,
          "internalType": "uint256",
          "name": "shares",
          "type": "uint256"
        }
      ],
      "name": "Withdraw",
      "type": "event"
    },
    {
      "inputs": [
        {
          "internalType": "address",
          "name": "token",
          "type": "address"
        }
      ],
      "name": "addToPortfolio",
      "outputs": [],
      "stateMutability": "nonpayable",
      "type": "function"
    },
    {
      "inputs": [
        {
          "internalType": "address",
          "name": "owner",
          "type": "address"
        },
        {
          "internalType": "address",
          "name": "spender",
          "type": "address"
        }
      ],
      "name": "allowance",
      "outputs": [
        {
          "internalType": "uint256",
          "name": "",
          "type": "uint256"
        }
      ],
      "stateMutability": "view",
      "type": "function"
    },
    {
      "inputs": [
        {
          "internalType": "address",
          "name": "spender",
          "type": "address"
        },
        {
          "internalType": "uint256",
          "name": "value",
          "type": "uint256"
        }
      ],
      "name": "approve",
      "outputs": [
        {
          "internalType": "bool",
          "name": "",
          "type": "bool"
        }
      ],
      "stateMutability": "nonpayable",
      "type": "function"
    },
    {
      "inputs": [
        {
          "internalType": "address",
          "name": "spender",
          "type": "address"
        },
        {
          "internalType": "address",
          "name": "token",
          "type": "address"
        },
        {
          "internalType": "uint256",
          "name": "amount",
          "type": "uint256"
        }
      ],
      "name": "approveSpender",
      "outputs": [],
      "stateMutability": "nonpayable",
      "type": "function"
    },
    {
      "inputs": [],
      "name": "asset",
      "outputs": [
        {
          "internalType": "address",
          "name": "",
          "type": "address"
        }
      ],
      "stateMutability": "view",
      "type": "function"
    },
    {
      "inputs": [
        {
          "internalType": "address",
          "name": "account",
          "type": "address"
        }
      ],
      "name": "balanceOf",
      "outputs": [
        {
          "internalType": "uint256",
          "name": "",
          "type": "uint256"
        }
      ],
      "stateMutability": "view",
      "type": "function"
    },
    {
      "inputs": [],
      "name": "calculateDailyFee",
      "outputs": [],
      "stateMutability": "nonpayable",
      "type": "function"
    },
    {
      "inputs": [],
      "name": "calculatePerformanceFee",
      "outputs": [
        {
          "internalType": "uint256",
          "name": "fee",
          "type": "uint256"
        }
      ],
      "stateMutability": "view",
      "type": "function"
    },
    {
      "inputs": [],
      "name": "calculateShareValue",
      "outputs": [
        {
          "internalType": "uint256",
          "name": "",
          "type": "uint256"
        }
      ],
      "stateMutability": "view",
      "type": "function"
    },
    {
      "inputs": [
        {
          "internalType": "address",
          "name": "_facet",
          "type": "address"
        },
        {
          "internalType": "uint256",
          "name": "_selectorIndex",
          "type": "uint256"
        },
        {
          "internalType": "bytes",
          "name": "_data",
          "type": "bytes"
        }
      ],
      "name": "callFacet",
      "outputs": [
        {
          "internalType": "bool",
          "name": "success",
          "type": "bool"
        },
        {
          "internalType": "bytes",
          "name": "result",
          "type": "bytes"
        }
      ],
      "stateMutability": "nonpayable",
      "type": "function"
    },
    {
      "inputs": [],
      "name": "chargeManagementFee",
      "outputs": [],
      "stateMutability": "nonpayable",
      "type": "function"
    },
    {
      "inputs": [],
      "name": "chargePerformanceFee",
      "outputs": [],
      "stateMutability": "nonpayable",
      "type": "function"
    },
    {
      "inputs": [
        {
          "internalType": "uint256",
          "name": "shares",
          "type": "uint256"
        }
      ],
      "name": "convertToAssets",
      "outputs": [
        {
          "internalType": "uint256",
          "name": "",
          "type": "uint256"
        }
      ],
      "stateMutability": "view",
      "type": "function"
    },
    {
      "inputs": [
        {
          "internalType": "uint256",
          "name": "assets",
          "type": "uint256"
        }
      ],
      "name": "convertToShares",
      "outputs": [
        {
          "internalType": "uint256",
          "name": "",
          "type": "uint256"
        }
      ],
      "stateMutability": "view",
      "type": "function"
    },
    {
      "inputs": [],
      "name": "decimals",
      "outputs": [
        {
          "internalType": "uint8",
          "name": "",
          "type": "uint8"
        }
      ],
      "stateMutability": "view",
      "type": "function"
    },
    {
      "inputs": [
        {
          "internalType": "uint256",
          "name": "assets",
          "type": "uint256"
        },
        {
          "internalType": "address",
          "name": "receiver",
          "type": "address"
        }
      ],
      "name": "deposit",
      "outputs": [
        {
          "internalType": "uint256",
          "name": "",
          "type": "uint256"
        }
      ],
      "stateMutability": "nonpayable",
      "type": "function"
    },
    {
      "inputs": [],
      "name": "diamond",
      "outputs": [
        {
          "internalType": "address",
          "name": "",
          "type": "address"
        }
      ],
      "stateMutability": "view",
      "type": "function"
    },
    {
      "inputs": [],
      "name": "entryFeeBasisPoints",
      "outputs": [
        {
          "internalType": "uint256",
          "name": "",
          "type": "uint256"
        }
      ],
      "stateMutability": "view",
      "type": "function"
    },
    {
      "inputs": [],
      "name": "exitFeeBasisPoints",
      "outputs": [
        {
          "internalType": "uint256",
          "name": "",
          "type": "uint256"
        }
      ],
      "stateMutability": "view",
      "type": "function"
    },
    {
      "inputs": [
        {
          "internalType": "address",
          "name": "",
          "type": "address"
        }
      ],
      "name": "facetSelectorCount",
      "outputs": [
        {
          "internalType": "uint256",
          "name": "",
          "type": "uint256"
        }
      ],
      "stateMutability": "view",
      "type": "function"
    },
    {
      "inputs": [
        {
          "internalType": "address",
          "name": "",
          "type": "address"
        },
        {
          "internalType": "uint256",
          "name": "",
          "type": "uint256"
        }
      ],
      "name": "facetSelectors",
      "outputs": [
        {
          "internalType": "bytes4",
          "name": "",
          "type": "bytes4"
        }
      ],
      "stateMutability": "view",
      "type": "function"
    },
    {
      "inputs": [
        {
          "internalType": "uint256",
          "name": "",
          "type": "uint256"
        }
      ],
      "name": "facets",
      "outputs": [
        {
          "internalType": "address",
          "name": "",
          "type": "address"
        }
      ],
      "stateMutability": "view",
      "type": "function"
    },
    {
      "inputs": [],
      "name": "getAccumulatedFee",
      "outputs": [
        {
          "internalType": "uint256",
          "name": "",
          "type": "uint256"
        }
      ],
      "stateMutability": "view",
      "type": "function"
    },
    {
      "inputs": [
        {
          "internalType": "bytes4",
          "name": "selector",
          "type": "bytes4"
        }
      ],
      "name": "getFacetAddress",
      "outputs": [
        {
          "internalType": "address",
          "name": "facetAddress",
          "type": "address"
        }
      ],
      "stateMutability": "view",
      "type": "function"
    },
    {
      "inputs": [],
      "name": "getHighWaterMark",
      "outputs": [
        {
          "internalType": "uint256",
          "name": "",
          "type": "uint256"
        }
      ],
      "stateMutability": "view",
      "type": "function"
    },
    {
      "inputs": [],
      "name": "getManagementFeeRate",
      "outputs": [
        {
          "internalType": "uint256",
          "name": "",
          "type": "uint256"
        }
      ],
      "stateMutability": "view",
      "type": "function"
    },
    {
      "inputs": [],
      "name": "getPerformanceFeeRate",
      "outputs": [
        {
          "internalType": "uint256",
          "name": "",
          "type": "uint256"
        }
      ],
      "stateMutability": "view",
      "type": "function"
    },
    {
      "inputs": [],
      "name": "getPortfolio",
      "outputs": [
        {
          "internalType": "address[]",
          "name": "",
          "type": "address[]"
        }
      ],
      "stateMutability": "view",
      "type": "function"
    },
    {
      "inputs": [],
      "name": "getPortfolioValue",
      "outputs": [
        {
          "internalType": "uint256",
          "name": "",
          "type": "uint256"
        }
      ],
      "stateMutability": "view",
      "type": "function"
    },
    {
      "inputs": [
        {
          "internalType": "address",
          "name": "token",
          "type": "address"
        }
      ],
      "name": "getValueInUSD",
      "outputs": [
        {
          "internalType": "uint256",
          "name": "",
          "type": "uint256"
        }
      ],
      "stateMutability": "view",
      "type": "function"
    },
    {
      "inputs": [
        {
          "internalType": "uint256",
          "name": "",
          "type": "uint256"
        }
      ],
      "name": "investors",
      "outputs": [
        {
          "internalType": "address",
          "name": "",
          "type": "address"
        }
      ],
      "stateMutability": "view",
      "type": "function"
    },
    {
      "inputs": [
        {
          "internalType": "address",
          "name": "token",
          "type": "address"
        }
      ],
      "name": "isPartOfPortfolio",
      "outputs": [
        {
          "internalType": "bool",
          "name": "",
          "type": "bool"
        }
      ],
      "stateMutability": "view",
      "type": "function"
    },
    {
      "inputs": [],
      "name": "managementInfo",
      "outputs": [
        {
          "internalType": "uint256",
          "name": "managementFeeRate",
          "type": "uint256"
        },
        {
          "internalType": "uint256",
          "name": "performanceFeeRate",
          "type": "uint256"
        },
        {
          "internalType": "uint256",
          "name": "lastFeeChargeTime",
          "type": "uint256"
        },
        {
          "internalType": "uint256",
          "name": "accumulatedFee",
          "type": "uint256"
        },
        {
          "internalType": "uint256",
          "name": "highWaterMarkInShareValue",
          "type": "uint256"
        }
      ],
      "stateMutability": "view",
      "type": "function"
    },
    {
      "inputs": [],
      "name": "manager",
      "outputs": [
        {
          "internalType": "address payable",
          "name": "",
          "type": "address"
        }
      ],
      "stateMutability": "view",
      "type": "function"
    },
    {
      "inputs": [
        {
          "internalType": "address",
          "name": "",
          "type": "address"
        }
      ],
      "name": "maxDeposit",
      "outputs": [
        {
          "internalType": "uint256",
          "name": "",
          "type": "uint256"
        }
      ],
      "stateMutability": "view",
      "type": "function"
    },
    {
      "inputs": [
        {
          "internalType": "address",
          "name": "",
          "type": "address"
        }
      ],
      "name": "maxMint",
      "outputs": [
        {
          "internalType": "uint256",
          "name": "",
          "type": "uint256"
        }
      ],
      "stateMutability": "view",
      "type": "function"
    },
    {
      "inputs": [
        {
          "internalType": "address",
          "name": "owner",
          "type": "address"
        }
      ],
      "name": "maxRedeem",
      "outputs": [
        {
          "internalType": "uint256",
          "name": "",
          "type": "uint256"
        }
      ],
      "stateMutability": "view",
      "type": "function"
    },
    {
      "inputs": [
        {
          "internalType": "address",
          "name": "owner",
          "type": "address"
        }
      ],
      "name": "maxWithdraw",
      "outputs": [
        {
          "internalType": "uint256",
          "name": "",
          "type": "uint256"
        }
      ],
      "stateMutability": "view",
      "type": "function"
    },
    {
      "inputs": [
        {
          "internalType": "uint256",
          "name": "shares",
          "type": "uint256"
        },
        {
          "internalType": "address",
          "name": "receiver",
          "type": "address"
        }
      ],
      "name": "mint",
      "outputs": [
        {
          "internalType": "uint256",
          "name": "",
          "type": "uint256"
        }
      ],
      "stateMutability": "nonpayable",
      "type": "function"
    },
    {
      "inputs": [],
      "name": "name",
      "outputs": [
        {
          "internalType": "string",
          "name": "",
          "type": "string"
        }
      ],
      "stateMutability": "view",
      "type": "function"
    },
    {
      "inputs": [],
      "name": "noOfInvestors",
      "outputs": [
        {
          "internalType": "uint256",
          "name": "",
          "type": "uint256"
        }
      ],
      "stateMutability": "view",
      "type": "function"
    },
    {
      "inputs": [
        {
          "internalType": "uint256",
          "name": "",
          "type": "uint256"
        }
      ],
      "name": "portfolio",
      "outputs": [
        {
          "internalType": "address",
          "name": "",
          "type": "address"
        }
      ],
      "stateMutability": "view",
      "type": "function"
    },
    {
      "inputs": [
        {
          "internalType": "uint256",
          "name": "assets",
          "type": "uint256"
        }
      ],
      "name": "previewDeposit",
      "outputs": [
        {
          "internalType": "uint256",
          "name": "",
          "type": "uint256"
        }
      ],
      "stateMutability": "view",
      "type": "function"
    },
    {
      "inputs": [
        {
          "internalType": "uint256",
          "name": "shares",
          "type": "uint256"
        }
      ],
      "name": "previewMint",
      "outputs": [
        {
          "internalType": "uint256",
          "name": "",
          "type": "uint256"
        }
      ],
      "stateMutability": "view",
      "type": "function"
    },
    {
      "inputs": [
        {
          "internalType": "uint256",
          "name": "shares",
          "type": "uint256"
        }
      ],
      "name": "previewRedeem",
      "outputs": [
        {
          "internalType": "uint256",
          "name": "",
          "type": "uint256"
        }
      ],
      "stateMutability": "view",
      "type": "function"
    },
    {
      "inputs": [
        {
          "internalType": "uint256",
          "name": "assets",
          "type": "uint256"
        }
      ],
      "name": "previewWithdraw",
      "outputs": [
        {
          "internalType": "uint256",
          "name": "",
          "type": "uint256"
        }
      ],
      "stateMutability": "view",
      "type": "function"
    },
    {
      "inputs": [
        {
          "internalType": "uint256",
          "name": "shares",
          "type": "uint256"
        },
        {
          "internalType": "address",
          "name": "receiver",
          "type": "address"
        },
        {
          "internalType": "address",
          "name": "owner",
          "type": "address"
        }
      ],
      "name": "redeem",
      "outputs": [
        {
          "internalType": "uint256",
          "name": "",
          "type": "uint256"
        }
      ],
      "stateMutability": "nonpayable",
      "type": "function"
    },
    {
      "inputs": [
        {
          "internalType": "address",
          "name": "token",
          "type": "address"
        }
      ],
      "name": "removeFromPortfolio",
      "outputs": [
        {
          "internalType": "bool",
          "name": "",
          "type": "bool"
        }
      ],
      "stateMutability": "nonpayable",
      "type": "function"
    },
    {
      "inputs": [
        {
          "internalType": "address",
          "name": "_diamond",
          "type": "address"
        }
      ],
      "name": "setDiamond",
      "outputs": [],
      "stateMutability": "nonpayable",
      "type": "function"
    },
    {
      "inputs": [
        {
          "internalType": "address",
          "name": "_facet",
          "type": "address"
        }
      ],
      "name": "setFacet",
      "outputs": [],
      "stateMutability": "nonpayable",
      "type": "function"
    },
    {
      "inputs": [
        {
          "internalType": "address",
          "name": "_facet",
          "type": "address"
        },
        {
          "internalType": "bytes4[]",
          "name": "_selectors",
          "type": "bytes4[]"
        }
      ],
      "name": "setFacetSelectors",
      "outputs": [],
      "stateMutability": "nonpayable",
      "type": "function"
    },
    {
      "inputs": [
        {
          "internalType": "uint256",
          "name": "_rate",
          "type": "uint256"
        }
      ],
      "name": "setManagementFeeRate",
      "outputs": [],
      "stateMutability": "nonpayable",
      "type": "function"
    },
    {
      "inputs": [
        {
          "internalType": "uint256",
          "name": "_rate",
          "type": "uint256"
        }
      ],
      "name": "setPerformanceFeeRate",
      "outputs": [],
      "stateMutability": "nonpayable",
      "type": "function"
    },
    {
      "inputs": [
        {
          "internalType": "bytes4",
          "name": "_selector",
          "type": "bytes4"
        }
      ],
      "name": "setSelector",
      "outputs": [],
      "stateMutability": "nonpayable",
      "type": "function"
    },
    {
      "inputs": [
        {
          "internalType": "address",
          "name": "_facet",
          "type": "address"
        },
        {
          "internalType": "uint256",
          "name": "_selectorIndex",
          "type": "uint256"
        },
        {
          "internalType": "bytes",
          "name": "_data",
          "type": "bytes"
        }
      ],
      "name": "staticCallFacet",
      "outputs": [
        {
          "internalType": "bool",
          "name": "success",
          "type": "bool"
        },
        {
          "internalType": "bytes",
          "name": "result",
          "type": "bytes"
        }
      ],
      "stateMutability": "view",
      "type": "function"
    },
    {
      "inputs": [],
      "name": "symbol",
      "outputs": [
        {
          "internalType": "string",
          "name": "",
          "type": "string"
        }
      ],
      "stateMutability": "view",
      "type": "function"
    },
    {
      "inputs": [],
      "name": "totalAssets",
      "outputs": [
        {
          "internalType": "uint256",
          "name": "",
          "type": "uint256"
        }
      ],
      "stateMutability": "view",
      "type": "function"
    },
    {
      "inputs": [],
      "name": "totalSupply",
      "outputs": [
        {
          "internalType": "uint256",
          "name": "",
          "type": "uint256"
        }
      ],
      "stateMutability": "view",
      "type": "function"
    },
    {
      "inputs": [
        {
          "internalType": "address",
          "name": "to",
          "type": "address"
        },
        {
          "internalType": "uint256",
          "name": "value",
          "type": "uint256"
        }
      ],
      "name": "transfer",
      "outputs": [
        {
          "internalType": "bool",
          "name": "",
          "type": "bool"
        }
      ],
      "stateMutability": "nonpayable",
      "type": "function"
    },
    {
      "inputs": [
        {
          "internalType": "address",
          "name": "from",
          "type": "address"
        },
        {
          "internalType": "address",
          "name": "to",
          "type": "address"
        },
        {
          "internalType": "uint256",
          "name": "value",
          "type": "uint256"
        }
      ],
      "name": "transferFrom",
      "outputs": [
        {
          "internalType": "bool",
          "name": "",
          "type": "bool"
        }
      ],
      "stateMutability": "nonpayable",
      "type": "function"
    },
    {
      "inputs": [
        {
          "internalType": "address",
          "name": "facet",
          "type": "address"
        },
        {
          "internalType": "address",
          "name": "spender",
          "type": "address"
        },
        {
          "internalType": "address",
          "name": "token",
          "type": "address"
        },
        {
          "internalType": "uint256",
          "name": "amount",
          "type": "uint256"
        },
        {
          "internalType": "uint256",
          "name": "selectorIndex",
          "type": "uint256"
        },
        {
          "internalType": "bytes",
          "name": "_data",
          "type": "bytes"
        }
      ],
      "name": "type1CallFacet",
      "outputs": [
        {
          "internalType": "bool",
          "name": "success",
          "type": "bool"
        },
        {
          "internalType": "bytes",
          "name": "result",
          "type": "bytes"
        }
      ],
      "stateMutability": "nonpayable",
      "type": "function"
    },
    {
      "inputs": [
        {
          "internalType": "address",
          "name": "facet",
          "type": "address"
        },
        {
          "internalType": "uint256",
          "name": "selectorIndex",
          "type": "uint256"
        },
        {
          "internalType": "bytes",
          "name": "_data",
          "type": "bytes"
        }
      ],
      "name": "type2CallFacet",
      "outputs": [
        {
          "internalType": "bool",
          "name": "success",
          "type": "bool"
        },
        {
          "internalType": "bytes",
          "name": "result",
          "type": "bytes"
        }
      ],
      "stateMutability": "nonpayable",
      "type": "function"
    },
    {
      "inputs": [
        {
          "internalType": "address",
          "name": "facet",
          "type": "address"
        },
        {
          "internalType": "uint256",
          "name": "selectorIndex",
          "type": "uint256"
        },
        {
          "internalType": "bytes",
          "name": "_data",
          "type": "bytes"
        }
      ],
      "name": "type3CallFacet",
      "outputs": [
        {
          "internalType": "bool",
          "name": "success",
          "type": "bool"
        },
        {
          "internalType": "bytes",
          "name": "result",
          "type": "bytes"
        }
      ],
      "stateMutability": "view",
      "type": "function"
    },
    {
      "inputs": [
        {
          "internalType": "uint256",
          "name": "assets",
          "type": "uint256"
        },
        {
          "internalType": "address",
          "name": "receiver",
          "type": "address"
        },
        {
          "internalType": "address",
          "name": "owner",
          "type": "address"
        }
      ],
      "name": "withdraw",
      "outputs": [
        {
          "internalType": "uint256",
          "name": "",
          "type": "uint256"
        }
      ],
      "stateMutability": "nonpayable",
      "type": "function"
    }
  ],
  "bytecode": {
    "object": "0x60c080604052346200057b57620046b2803803809162000020828562000897565b8339810160e0828203126200057b5781516001600160401b0381116200057b57816200004e918401620008d7565b602083015190916001600160401b0382116200057b5762000071918401620008d7565b916040810151906060810151916200008c6080830162000941565b93620000a960c0620000a160a0860162000941565b940162000941565b81519096906001600160401b038111620003985760035492600184811c9416801562000870575b602085101462000783578190601f948581116200083b575b50602090858311600114620007b057600092620007a4575b50508160011b916000199060031b1c1916176003555b8051916001600160401b038311620003985760045491600183811c9316801562000799575b60208410146200078357828285941162000743575b506020918311600114620006b857600092620006ac575b50508160011b916000199060031b1c1916176004555b62000187620012ff565b9015620006a3575b60a05273a0b86991c6218b36c1d19d4a2e9eb0ce3606eb48608052601080546001600160a01b0319163317905560135460055490939060009081906001600160a01b03165b86821062000431575050600254908015801562000428575b6000901562000404575050506001915b60405160a081016001600160401b038111828210176200039857849160809160405283815284602082015260006040820152600060608201520152600b55600c556000600d556000600e55600f5560018060a01b0360805116936200026185620009f0565b620003ae576801000000000000000083101562000398576200034f9462000293846001620003229601601355620009b8565b815460039190911b92831b6001600160a01b039384901b1990911617905560058054929091166001600160a01b0319909216821790557fc2c7b6f89581aaed297b266b8b7687a221c3bbb4fadafb49df5e5d0a1fdea4ab600080a260405190620002fd826200087b565b6001825260203681840137635e37902760e11b6200031b8362000956565b5262000a89565b6040519062000331826200087b565b60018252602036818401376308c6141b60e31b6200031b8362000956565b60405161331d908162001395823960805181818161069a01528181610fbb0152818161148601528181611dea01528181612173015281816125830152612e79015260a051815050f35b634e487b7160e01b600052604160045260246000fd5b60405162461bcd60e51b815260206004820152602860248201527f455243343632363a20746f6b656e20616c72656164792070617274206f6620706044820152676f7274666f6c696f60c01b6064820152608490fd5b82156200041457500491620001fc565b634e487b7160e01b81526012600452602490fd5b508115620001ec565b90916200043e83620009b8565b905460039190911b1c6001600160a01b03166200045a62000d8a565b6040516370a0823160e01b8152306004820152602081602481865afa90811562000697576000916200065c575b5060405192635e37902760e11b6020850152602484015260448301526044825281608081011060018060401b0360808401111762000398576080820160409081526001600160a01b0382166000908152600760205220541562000615576001600160a01b031660009081526007602052604090205415620005d05760008160208293519101855afa62000519620012ca565b90620005258162000a48565b620005308162000a48565b1562000580576020818051810103126200057b5760200151810180911162000565576200055e9092620009a8565b90620001d4565b634e487b7160e01b600052601160045260246000fd5b600080fd5b60405162461bcd60e51b815260206004820152602260248201527f67657456616c7565496e5553442063616c6c20646964206e6f74207375636365604482015261195960f21b6064820152608490fd5b60405162461bcd60e51b815260206004820152601660248201527f496e76616c69642073656c6563746f7220696e646578000000000000000000006044820152606490fd5b62461bcd60e51b6080830190815260206084840152601660a48401527f4e6f2066616365742073656c6563746f7273207365740000000000000000000060c4840152606490fd5b906020823d6020116200068e575b81620006796020938362000897565b810103126200068b5750513862000487565b80fd5b3d91506200066a565b6040513d6000823e3d90fd5b5060126200018f565b01519050388062000167565b600460009081527f8a35acfbc15ff81a39ae7d344fd709f28e8600b4aa8c65c6b64bfe7fe36bd19b9350601f198516905b8181106200072a575090846001959493921062000710575b505050811b016004556200017d565b015160001960f88460031b161c1916905538808062000701565b92936020600181928786015181550195019301620006e9565b6200077290600460005260206000208480870160051c8201926020881062000779575b0160051c01906200098f565b3862000150565b9250819262000766565b634e487b7160e01b600052602260045260246000fd5b92607f16926200013b565b01519050388062000100565b600360009081527fc2575a0e9e593c00f959f8c92f12db2869c3395a3b0502d05e2516446f71f85b9350601f198516905b81811062000822575090846001959493921062000808575b505050811b0160035562000116565b015160001960f88460031b161c19169055388080620007f9565b92936020600181928786015181550195019301620007e1565b6200086990600360005260206000208780860160051c8201926020871062000779570160051c01906200098f565b38620000e8565b93607f1693620000d0565b604081019081106001600160401b038211176200039857604052565b601f909101601f19168101906001600160401b038211908210176200039857604052565b6001600160401b0381116200039857601f01601f191660200190565b919080601f840112156200057b57825190620008f382620008bb565b9162000903604051938462000897565b8083526020918282870101116200057b5760005b8181106200092d57508260009394955001015290565b858101830151848201840152820162000917565b51906001600160a01b03821682036200057b57565b805115620009645760200190565b634e487b7160e01b600052603260045260246000fd5b8051821015620009645760209160051b010190565b8181106200099b575050565b600081556001016200098f565b6000198114620005655760010190565b6013548110156200096457601360005260206000200190600090565b6006548110156200096457600660005260206000200190600090565b6013549060005b82811062000a0757505050600090565b62000a1281620009b8565b905460039190911b1c6001600160a01b039081169083161462000a405762000a3a90620009a8565b620009f7565b505050600190565b1562000a5057565b60405162461bcd60e51b8152602060048201526011602482015270119858d95d0818d85b1b0819985a5b1959607a1b6044820152606490fd5b6001600160a01b03908116600081815260076020908152604080832086519097949691959394909391906001600160401b03851162000d7657680100000000000000009485811162000c6d578954818b5580821062000d23575b5084830190819a88528588208160031c91895b83811062000cd45750600719811690038062000c81575b505050508786526009845260ff948588882054161562000c21575b50855b825181101562000bb05762000b7490846001600160e01b031962000b5083876200097a565b5116808a52600a88528a8a20908154918a83161562000b7a575b50505050620009a8565b62000b2b565b600162000b8e9360ff19161790556200102d565b1688526008865288882062000ba48154620009a8565b90558438808062000b6a565b5096959493509190508351938185019282865251809352840196925b82811062000c025750505050807fbc408c24689c158a8424b0452723d5766790ac1d263caa627d9b11e66c8716d59293940390a2565b83516001600160e01b0319168852968101969281019260010162000bcc565b6006549081101562000c6d5780600162000c3f9201600655620009d4565b81549060031b90858b831b921b191617905587865260098452868620600160ff198254161790553862000b28565b634e487b7160e01b87526041600452602487fd5b9289938a5b8982821062000c9f575050505001553880808062000b0d565b62000cc9849760019394955160e01c908560021b60031b9163ffffffff809116831b921b19161790565b960192910162000c86565b8a8b5b8a6008821062000cf05750508382015560010162000af6565b62000d198893600193995160e01c908a60021b60031b9163ffffffff809116831b921b19161790565b9201960162000cd7565b62000d54908b8952868920600780850160031c820192601c8660021b168062000d5b575b500160031c01906200098f565b3862000ae3565b60001990818601918254918d0360031b1c1690553862000d47565b634e487b7160e01b86526041600452602486fd5b60065460005b81811062000d9f575050600090565b62000daa81620009d4565b909160018060a01b03809354600393841b1c16600052600760209481865260409586600020908751918298899383835491828152019260005283600020966000905b828183011062000fbb57508462000e539798549383831062000f9a575b83831062000f79575b83831062000f58575b83831062000f37575b83831062000f16575b83831062000ef8575b5082821062000edb575b501062000ec6575b509050038662000897565b60005b855181101562000eaf57635e37902760e11b6001600160e01b031962000e7d83896200097a565b51161462000e965762000e9090620009a8565b62000e56565b505062000ea691929350620009d4565b9054911b1c1690565b509350905062000ec09150620009a8565b62000d90565b6001600160e01b031916815201803862000e48565b83811b6001600160e01b0319168552909301926001018462000e40565b84901b6001600160e01b031916855290930192600101843862000e36565b606085901b6001600160e01b03191686529481019460019092019162000e2d565b608085901b6001600160e01b03191686529481019460019092019162000e24565b60a085901b6001600160e01b03191686529481019460019092019162000e1b565b60c085901b6001600160e01b03191686529481019460019092019162000e12565b60e085901b6001600160e01b03191686529481019460019092019162000e09565b97936001610100600892875463ffffffff60e01b60e0918181841b1684528b828260c0928282851b16818901528d838360a0928282851b16818d01528b8383608092606090818484871b169101521b16908d01521b16908901521b169085015216908201520195019101909762000dec565b6006549060005b8281106200104457505050600090565b6200104f81620009d4565b91909260018060a01b03809454600394851b1c166000526007602095818752604096876000209088519182998a9383835491828152019260005283600020966000905b828183011062001258575084620010f99798549383831062001237575b83831062001216575b838310620011f5575b838310620011d4575b838310620011b3575b83831062001195575b5082821062001178575b501062001163575b509050038762000897565b60005b865181101562001149576001600160e01b0319806200111c838a6200097a565b51169084161462001138576200113290620009a8565b620010fc565b50505062000ea691929350620009d4565b50935093506200115a9150620009a8565b91909162001034565b6001600160e01b0319168152018038620010ee565b83811b6001600160e01b03191685529093019260010184620010e6565b84901b6001600160e01b0319168552909301926001018438620010dc565b606085901b6001600160e01b031916865294810194600190920191620010d3565b608085901b6001600160e01b031916865294810194600190920191620010ca565b60a085901b6001600160e01b031916865294810194600190920191620010c1565b60c085901b6001600160e01b031916865294810194600190920191620010b8565b60e085901b6001600160e01b031916865294810194600190920191620010af565b97936001610100600892875463ffffffff60e01b60e0918181841b1684528b828260c0928282851b16818901528d838360a0928282851b16818d01528b8383608092606090818484871b169101521b16908d01521b16908901521b169085015216908201520195019101909762001092565b3d15620012fa573d90620012de82620008bb565b91620012ee604051938462000897565b82523d6000602084013e565b606090565b60405163313ce56760e01b6020820190815260048252919062001322816200087b565b600080938192519073a0b86991c6218b36c1d19d4a2e9eb0ce3606eb485afa6200134b620012ca565b908062001387575b6200135e575b508190565b60208180518101031262001383576020015160ff811162001359576001925060ff1690565b8280fd5b506020815110156200135356fe6040608081526004908136101561001557600080fd5b60009160e0908335821c91826301e1d11414611aa957826306fdde03146119b357826307a2d13a14611992578263095ea7b3146118e75782630a28a477146118bf5782630c5fe4501461185a5782630d1133d0146116ad578263127f3b611461167e57826318160ddd1461165e5782631fc181e0146116465784836322604de2146115a65750826323b872dd1461157e57826324bc8c931461155c5782632e63a15614611530578263313ce567146115135782633203dfaf146114d757826337149a4d146114b557826338d52e0f146114705782633feb5f2b14611418578263402d267d146109665782634655e987146113fa578263481c6a75146113d05782634cdad506146113ac578263558311a11461138e5782636726d55d146113765782636e553f651461133457826370a082311461131257826376ed535a146112af5782637a070c2d1461127757826385631ace1461123557826386915573146109bb5782639075825b1461121557826391a67526146111e557826393d21783146111c557826394bf804d1461118c57826394f2a9371461114a5782639585694514610f8257826395d89b4114610e6a5782639d19623b14610b9857508163a9059cbb14610b67578163b3d7f6b914610b35578163b460af9414610a85578163b4e29e7a14610a66578163ba087652146109c0578163ba0af7a9146109bb578163bb0498de1461099e578163bc86951c1461096b578163c63d75b614610966578163c6e6f59214610946578163ce96cb771461090d578163cf04327a146108b2578163d0dfd91114610813578163d19ca762146107f4578163d3a8d71814610660578163d3d034581461059b578163d5383eb914610563578163d905777e14610527578163dd62ed3e146104de578163e36448d7146104bf578163e5cc9d3814610491578163eccaf26a14610374578163ef8b30f71461033f57508063f0b7db4e146103175763f96a7129146102e857600080fd5b346103135760203660031901126103135760209061030c610307611b07565b612365565b9051908152f35b5080fd5b503461031357816003193601126103135760055490516001600160a01b039091168152602090f35b828434610371576020366003190112610371575061030c61036c6020933561036681613158565b90611d79565b612f1a565b80fd5b90503461048d578260031936011261048d5761039b60018060a01b03601054163314612217565b600d5462015180810180911161047a57421061042a575060207f620d1f49d58808e8dce70f6218d889dcafade2ed88b0ea909c7bb9416be7022d9161271061016d6103f06103e76124e8565b600b54906122c9565b0404906103ff82600e54611d9c565b600e5542600d5561040e612298565b600f548111610421575b5051908152a180f35b600f5538610418565b6020608492519162461bcd60e51b8352820152602560248201527f4665652063616e206f6e6c792062652063616c63756c61746564206f6e636520604482015264612064617960d81b6064820152fd5b634e487b7160e01b845260118252602484fd5b8280fd5b505034610313576104bb906104ae6104a836611bef565b91612db5565b9290915192839283611bd3565b0390f35b505034610313578160031936011261031357602090600c549051908152f35b505034610313578060031936011261031357806020926104fc611b07565b610504611b22565b6001600160a01b0391821683526001865283832091168252845220549051908152f35b5050346103135760203660031901126103135760209061030c610548611b07565b6001600160a01b031660009081526020819052604090205490565b5050346103135760203660031901126103135760209181906001600160a01b0361058b611b07565b1681526008845220549051908152f35b8284346103715780600319360112610371579080519182906013549182855260208095018093601384527f66de8ffda797e3de9c05e8fc57b3bf0ec28a930d40b0d285d93c06501cf6a09090845b81811061064357505050816105ff910382611b38565b83519485948186019282875251809352850193925b82811061062357505050500390f35b83516001600160a01b031685528695509381019392810192600101610614565b82546001600160a01b0316845292880192600192830192016105e9565b839150346103135781600319360112610313576010546001600160a01b03908116939061068e338614612217565b600e549081156107b1577f000000000000000000000000000000000000000000000000000000000000000016948251956370a0823160e01b875230858801526020948588602481855afa9788156107a7578798610774575b5083881061072957509161071d917f2d46e156a9ac545bd5f27832a0e6293d21c92faf9237534c6b18c51e9cca59df959493611f67565b83600e5551838152a180f35b61077090857f0e45ed666e2d3722e227d07df348022230ae605aa08fabddde5aa35f990c8636818b888b8351928352820152a15162461bcd60e51b81529182918201612322565b0390fd5b9097508581813d83116107a0575b61078c8183611b38565b8101031261079c575196886106e6565b8680fd5b503d610782565b85513d89823e3d90fd5b825162461bcd60e51b8152602081860152601c60248201527f4e6f20616363756d756c617465642066656520746f20636861726765000000006044820152606490fd5b505034610313578160031936011261031357602090600b549051908152f35b90503461048d57602036600319011261048d5761082e611b07565b9161084460018060a01b03601054163314612217565b61084d836126b5565b61085e578361085b84612533565b80f35b906020608492519162461bcd60e51b8352820152602860248201527f455243343632363a20746f6b656e20616c72656164792070617274206f6620706044820152676f7274666f6c696f60c01b6064820152fd5b90503461048d57602036600319011261048d577f99e1752ea91f70d443a1066d6c1190cb451035f321f7db694888cce44aa5453791602091359061090160018060a01b03601054163314612217565b81600b5551908152a180f35b5050346103135760203660031901126103135760209161030c9082906001600160a01b03610939611b07565b1681528085522054612f45565b828434610371576020366003190112610371575061030c60209235612f1a565b611d02565b505034610313576104bb9061098861098236611bef565b91612e18565b92909161099483612706565b5192839283611bd3565b50503461031357816003193601126103135760209061030c6124e8565b611d28565b9050823461037157506109d236611d44565b926109f08460018060a01b0316600052600060205260406000205490565b8311610a23575081610a1d91610a14610a0b60209795612f45565b61036681613158565b948591336120c5565b51908152f35b606490602086519162461bcd60e51b8352820152601d60248201527f455243343632363a2072656465656d206d6f7265207468616e206d61780000006044820152fd5b505034610313578160031936011261031357602090600f549051908152f35b905082346103715750610a9736611d44565b92610ac0610abb8594939460018060a01b0316600052600060205260406000205490565b612f45565b8211610af257506020939181610ae9610ae4610ade610a1d95613133565b83611d9c565b612eef565b948592336120c5565b606490602086519162461bcd60e51b8352820152601f60248201527f455243343632363a207769746864726177206d6f7265207468616e206d6178006044820152fd5b828434610371576020366003190112610371575061030c610b5860209335612f70565b610b6181613133565b90611d9c565b505034610313578060031936011261031357602090610b91610b87611b07565b6024359033612f9b565b5160018152f35b91509234610371578260031936011261037157610bb3611b07565b9260249081359467ffffffffffffffff94858711610e665736602388011215610e66578688013597868911610e54578860051b9684519860209a610bf98c8b018c611b38565b8a528a8a0187819a83010191368311610e50578801905b828210610e2c5750505060018060a01b0384169586885260078b52858820928a51928311610e1b57600160401b8311610e1b5750508154818355808210610dc4575b5087918752898720908060031c92885b848110610d79575060071982169091039081610d24575b5050505050610c8790612746565b825b8551811015610cbd57610cb890610cb36001600160e01b0319610cac838a61281d565b51166127bf565b6124d9565b610c89565b508585825192828401918385525180925283019591855b828110610d065786867fbc408c24689c158a8424b0452723d5766790ac1d263caa627d9b11e66c8716d5878b0388a280f35b83516001600160e01b03191688529681019692810192600101610cd4565b90889489905b8d838310610d455750505050500155610c8738808080610c79565b610d6e859860019394959651851c908660021b60031b9163ffffffff809116831b921b19161790565b970193920190610d2a565b89808e5b60088210610d9357505084820155600101610c62565b610dba859360019396518b1c908760021b60031b9163ffffffff809116831b921b19161790565b920193018e610d7d565b8288528a8820600780840160031c8201920160031c0190601c8360021b1680610e02575b505b818110610df75750610c52565b888155600101610dea565b8c600019808401928354920360031b1c16905538610de8565b634e487b7160e01b89526041905287fd5b81356001600160e01b031981168103610e4c578152908c01908c01610c10565b8a80fd5b8980fd5b634e487b7160e01b8652604190528385fd5b8480fd5b5082843461037157806003193601126103715781519181845492600184811c91818616958615610f78575b6020968785108114610f65579087899a92868b999a9b529182600014610f3b575050600114610ee0575b85886104bb89610ed1848a0385611b38565b51928284938452830190611ac7565b815286935091907f8a35acfbc15ff81a39ae7d344fd709f28e8600b4aa8c65c6b64bfe7fe36bd19b5b828410610f235750505082010181610ed16104bb88610ebf565b8054848a018601528895508794909301928101610f09565b60ff19168882015294151560051b87019094019450859350610ed192506104bb9150899050610ebf565b634e487b7160e01b835260228a52602483fd5b92607f1692610e95565b5090503461048d578260031936011261048d576010546001600160a01b039190821690610fb0338314612217565b610fb86122dc565b927f0000000000000000000000000000000000000000000000000000000000000000169380516370a0823160e01b808252308483015260209182816024818b5afa90811561114057899161110f575b50861161104557505050508161101b578380f35b61102492611f67565b61102c612298565b600f54811161103c575b80808380f35b600f5538611036565b8295945060248294979351809481938252308a8301525afa9586156111045780966110b2575b5050610770947f0e45ed666e2d3722e227d07df348022230ae605aa08fabddde5aa35f990c86369284928351928352820152a15162461bcd60e51b81529182918201612322565b909180965082813d83116110fd575b6110cb8183611b38565b8101031261037157505193807f0e45ed666e2d3722e227d07df348022230ae605aa08fabddde5aa35f990c863661106b565b503d6110c1565b8451903d90823e3d90fd5b90508281813d8311611139575b6111268183611b38565b81010312611135575138611007565b8880fd5b503d61111c565b84513d8b823e3d90fd5b5090503461048d57602036600319011261048d5735916006548310156103715750611176602092611cb4565b905491519160018060a01b039160031b1c168152f35b5090503461048d578160031936011261048d57602092503590610a1d6111b0611b22565b926111bd610b5882612f70565b809433611da9565b50505034610313578160031936011261031357602090600e549051908152f35b505050346103135760203660031901126103135760209061120c611207611b07565b6126b5565b90519015158152f35b505050346103135781600319360112610313576020906012549051908152f35b5050503461031357816003193601126103135760a090600b5490600c5490600d54600e5491600f54938151958652602086015284015260608301526080820152f35b505050346103135760203660031901126103135760209061129e611299611ceb565b612ab1565b90516001600160a01b039091168152f35b8434610371576020366003190112610371576001600160a01b036112d1611b07565b16806bffffffffffffffffffffffff60a01b60055416176005557fc2c7b6f89581aaed297b266b8b7687a221c3bbb4fadafb49df5e5d0a1fdea4ab8280a280f35b505050346103135760203660031901126103135760209061030c610548611b07565b5090503461048d578160031936011261048d57602092503590610a1d611358611b22565b61136d61036c61136786613158565b86611d79565b93849133611da9565b50505034610313576104bb906109886104a836611bef565b5050503461031357816003193601126103135760209061030c612298565b50828434610371576020366003190112610371575061030c610a0b60209335612f45565b5050503461031357816003193601126103135760105490516001600160a01b039091168152602090f35b5050503461031357816003193601126103135760209061030c6122dc565b5090503461048d57602036600319011261048d573560115481101561048d5760116020935260018060a01b03907f31ecc21a745e3968a04e9570e4425bc18fa8019c68028196b546d1669c200c680154169051908152f35b50505034610313578160031936011261031357517f00000000000000000000000000000000000000000000000000000000000000006001600160a01b03168152602090f35b84346103715760203660031901126103715761085b6114d2611ceb565b6127bf565b505050346103135760203660031901126103135760209061120c6114f9611b07565b61150e60018060a01b03601054163314612217565b612575565b505050346103135781600319360112610313576020905160068152f35b5090503461048d57602036600319011261048d5735916013548310156103715750611176602092611c67565b84346103715760203660031901126103715761085b611579611b07565b612746565b5050503461031357602090610b9161159536611c32565b916115a1833383613060565b612f9b565b80858434611642576115f1926020916115be36611c32565b865163095ea7b360e01b81526001600160a01b039093169383019384526020840152909586939192849291839160400190565b03926001600160a01b03165af1908115611639575061160e575080f35b61162e9060203d8111611632575b6116268183611b38565b810190611fa8565b5080f35b503d61161c565b513d84823e3d90fd5b5050fd5b50505034610313576104bb906104ae61098236611bef565b505050346103135781600319360112610313576020906002549051908152f35b848234610313576020366003190112610313576116a660018060a01b03601054163314612217565b35600c5580f35b508383346103135760c0366003190112610313576116c9611b07565b916116d2611b22565b936044359460018060a01b039485871680970361182f5760a4359667ffffffffffffffff8811610e665761170c6117449836908601611b8c565b928651809263095ea7b360e01b825281888160209d8e96606435908c840160209093929193604081019460018060a01b031681520152565b03925af180156118505790611764939291611833575b5060843590612db5565b95909461177086612706565b868051601481101561178d575b50866104bb875192839283611bd3565b810103821361182f57818701519381851680950361037157506117b590601054163314612217565b6117be836126b5565b6117dc575050906117d16104bb92612533565b90848080868161177d565b835162461bcd60e51b815291820152602860248201527f455243343632363a20746f6b656e20616c72656164792070617274206f6620706044820152676f7274666f6c696f60c01b606482015260849150fd5b8380fd5b61184990893d8b11611632576116268183611b38565b508861175a565b86513d87823e3d90fd5b9150503461048d578160031936011261048d57611875611b07565b6001600160a01b0316835260076020528183208054602435929190831015610e66578460209591869252208260031c01549251928163ffffffff60e01b9360051b161c901b168152f35b50828434610371576020366003190112610371575061030c610ae460209335610b6181613133565b5090503461048d578160031936011261048d57611902611b07565b60243590331561197b576001600160a01b031691821561196457508083602095338152600187528181208582528752205582519081527f8c5be1e5ebec7d5bd14f71427d1e84f3dd0314c0f7b2291e5b200ac8c7c3b925843392a35160018152f35b8351634a1406b160e11b8152908101859052602490fd5b835163e602df0560e01b8152808401869052602490fd5b50828434610371576020366003190112610371575061030c60209235612f45565b508284346103715780600319360112610371578151918160035492600184811c91818616958615611a9f575b6020968785108114610f65578899509688969785829a529182600014611a78575050600114611a1c575b5050506104bb9291610ed1910385611b38565b9190869350600383527fc2575a0e9e593c00f959f8c92f12db2869c3395a3b0502d05e2516446f71f85b5b828410611a605750505082010181610ed16104bb611a09565b8054848a018601528895508794909301928101611a47565b60ff19168782015293151560051b86019093019350849250610ed191506104bb9050611a09565b92607f16926119df565b5050503461031357816003193601126103135760209061030c612e5e565b919082519283825260005b848110611af3575050826000602080949584010152601f8019910116010190565b602081830181015184830182015201611ad2565b600435906001600160a01b0382168203611b1d57565b600080fd5b602435906001600160a01b0382168203611b1d57565b90601f8019910116810190811067ffffffffffffffff821117611b5a57604052565b634e487b7160e01b600052604160045260246000fd5b67ffffffffffffffff8111611b5a57601f01601f191660200190565b81601f82011215611b1d57803590611ba382611b70565b92611bb16040519485611b38565b82845260208383010111611b1d57816000926020809301838601378301015290565b604090611bec9392151581528160208201520190611ac7565b90565b6060600319820112611b1d576004356001600160a01b0381168103611b1d5791602435916044359067ffffffffffffffff8211611b1d57611bec91600401611b8c565b6060906003190112611b1d576001600160a01b03906004358281168103611b1d57916024359081168103611b1d579060443590565b601354811015611c9e5760136000527f66de8ffda797e3de9c05e8fc57b3bf0ec28a930d40b0d285d93c06501cf6a0900190600090565b634e487b7160e01b600052603260045260246000fd5b600654811015611c9e5760066000527ff652222313e28459528d920b65115c16c04f3efc82aaedc97be59f3f377c0d3f0190600090565b600435906001600160e01b031982168203611b1d57565b34611b1d576020366003190112611b1d57611d1b611b07565b5060206040516000198152f35b34611b1d576000366003190112611b1d57602060405160648152f35b6060906003190112611b1d57600435906001600160a01b03906024358281168103611b1d57916044359081168103611b1d5790565b91908203918211611d8657565b634e487b7160e01b600052601160045260246000fd5b91908201809211611d8657565b909192611db584613158565b604080516323b872dd60e01b60208201526001600160a01b0394851660248201819052306044830152606480830189905282527f00000000000000000000000000000000000000000000000000000000000000009793969093919060a0820167ffffffffffffffff811183821017611b5a578792611e359186528a611fc0565b16938415611ef6579081611e6d7fdcbc1c05240f31ff3ad067ef1ee35ce4997762752e3a095284754544f4c709d79493600254611d9c565b600255856000526000602052826000208181540190558560007fddf252ad1be2c89b69c2b068fc378daa952ba7f163c4a11628f55a4df523b3ef60208651858152a382519182526020820152a381151580611ed8575b611ecc57505050565b611ed69216611f0e565b565b503073141571912ec34f9be50a6b8dc805e71df70fadad1415611ec3565b825163ec442f0560e01b815260006004820152602490fd5b906040519063a9059cbb60e01b602083015273141571912ec34f9be50a6b8dc805e71df70fadad6024830152604482015260448152608081019181831067ffffffffffffffff841117611b5a57611ed692604052611fc0565b60405163a9059cbb60e01b60208201526001600160a01b03929092166024830152604480830193909352918152611ed691611fa3606483611b38565b611fc0565b90816020910312611b1d57518015158103611b1d5790565b600080611fe99260018060a01b03169360208151910182865af1611fe2612032565b9083612062565b8051908115159182612017575b5050611fff5750565b60249060405190635274afe760e01b82526004820152fd5b61202a9250602080918301019101611fa8565b153880611ff6565b3d1561205d573d9061204382611b70565b916120516040519384611b38565b82523d6000602084013e565b606090565b90612089575080511561207757805190602001fd5b604051630a12f52160e11b8152600490fd5b815115806120bc575b61209a575090565b604051639996b31560e01b81526001600160a01b039091166004820152602490fd5b50803b15612092565b926120cf81613133565b936001600160a01b0393808516938583169288868503612206575b505084156121ed5760008581528060205260409283822054908a82106121bc575091818a7ffbde797d201c681b91056529119e0b02407c7bb96a4a2c75c01fc9667232c8db9594898b95528260205203848220558a60025403600255877fddf252ad1be2c89b69c2b068fc378daa952ba7f163c4a11628f55a4df523b3ef60208d8751908152a37f00000000000000000000000000000000000000000000000000000000000000009961219e87838d611f67565b835196875260208701521693a481151580611ed857611ecc57505050565b845163391434e360e21b81526001600160a01b039190911660048201526024810191909152604481018a9052606490fd5b604051634b637e8f60e11b815260006004820152602490fd5b6122109184613060565b38886120ea565b1561221e57565b60405162461bcd60e51b815260206004820152602c60248201527f455243343632363a206f6e6c79206d616e616765722063616e2063616c6c207460448201526b3434b990333ab731ba34b7b760a11b6064820152608490fd5b8115612282570490565b634e487b7160e01b600052601260045260246000fd5b6122a06124e8565b600254811580156122c1575b156122b8575050600190565b611bec91612278565b5080156122ac565b81810292918115918404141715611d8657565b6000906122e7612298565b600f54908181116122f6575050565b61271092935061230c61231e9261231592611d79565b600254906122c9565b600c54906122c9565b0490565b60809060208152602260208201527f455243343632363a20696e73756666696369656e7420555344432062616c616e604082015261636560f01b60608201520190565b61236d612831565b604080516370a0823160e01b815230600482015260209391926001600160a01b039185816024818688165afa9081156124ce576000916124a1575b508451635e37902760e11b8782019081526001600160a01b039590951660248201526044808201929092529081526000938493919290919081906123ed606486611b38565b1680855260078852612403878620541515612d2b565b845260078752612417868520541515612d70565b600554169151915afa90612429612032565b9161243381612706565b61243c81612706565b1561245357508181805181010312611b1d57015190565b5162461bcd60e51b815260048101839052602260248201527f67657456616c7565496e5553442063616c6c20646964206e6f74207375636365604482015261195960f21b6064820152608490fd5b908682813d83116124c7575b6124b78183611b38565b81010312610371575051826123a8565b503d6124ad565b85513d6000823e3d90fd5b6000198114611d865760010190565b6000806013545b8082106124fb57505090565b909161252761252d91610b6161251086611c67565b905460039190911b1c6001600160a01b0316612365565b926124d9565b906124ef565b60135490600160401b821015611b5a57612556826001611ed69401601355611c67565b90919082549060031b9160018060a01b03809116831b921b1916179055565b6001600160a01b03908116907f00000000000000000000000000000000000000000000000000000000000000008116821461265f579060005b60139081549182821015612655578492846125c884611c67565b979054600398891b1c16146125ed5750506125e5919293506124d9565b9190916125ae565b90935060001991828201918211611d86576125568461260e61261b94611c67565b905490891b1c1691611c67565b8254801561263f57019261262e84611c67565b81939154921b1b1916905555600190565b634e487b7160e01b600052603160045260246000fd5b5050505050600090565b60405162461bcd60e51b815260206004820152602860248201527f455243343632363a2063616e6e6f742072656d6f76652064656e6f6d696e6174604482015267195908185cdcd95d60c21b6064820152608490fd5b6013549060005b8281106126cb57505050600090565b6126d481611c67565b905460039190911b1c6001600160a01b03908116908316146126fe576126f9906124d9565b6126bc565b505050600190565b1561270d57565b60405162461bcd60e51b8152602060048201526011602482015270119858d95d0818d85b1b0819985a5b1959607a1b6044820152606490fd5b6001600160a01b03811660008181526009602052604081205490929060ff161561276f57505050565b600654600160401b8110156127ab5760409392916125568260016127969401600655611cb4565b8152600960205220805460ff19166001179055565b634e487b7160e01b84526041600452602484fd5b63ffffffff60e01b8116600052600a6020526040600020805460ff8116156127e657505050565b60ff191660011790556001600160a01b039061280190612ab1565b166000526008602052604060002061281981546124d9565b9055565b8051821015611c9e5760209160051b010190565b60065460005b818110612845575050600090565b61284e81611cb4565b909160018060a01b03809354600393841b1c16600052600760209481865260409586600020908751918298899383835491828152019260005283600020966000905b8281830110612a405750846128ec97985493838310612a20575b838310612a00575b8383106129e0575b8383106129c0575b8383106129a0575b838310612983575b50828210612967575b5010612953575b5090500386611b38565b60005b855181101561293f57635e37902760e11b6001600160e01b0319612913838961281d565b51161461292857612923906124d9565b6128ef565b505061293691929350611cb4565b9054911b1c1690565b509350905061294e91506124d9565b612837565b6001600160e01b03191681520180386128e2565b83811b6001600160e01b031916855290930192600101846128db565b84901b6001600160e01b03191685529093019260010184386128d2565b606085901b6001600160e01b0319168652948101946001909201916128ca565b608085901b6001600160e01b0319168652948101946001909201916128c2565b60a085901b6001600160e01b0319168652948101946001909201916128ba565b60c085901b6001600160e01b0319168652948101946001909201916128b2565b60e085901b6001600160e01b0319168652948101946001909201916128aa565b97936001610100600892875463ffffffff60e01b60e0918181841b1684528b828260c0928282851b16818901528d838360a0928282851b16818d01528b8383608092606090818484871b169101521b16908d01521b16908901521b1690850152169082015201950191019097612890565b6006549060005b828110612ac757505050600090565b612ad081611cb4565b91909260018060a01b03809454600394851b1c166000526007602095818752604096876000209088519182998a9383835491828152019260005283600020966000905b8281830110612cba575084612b6f97985493838310612c9a575b838310612c7a575b838310612c5a575b838310612c3a575b838310612c1a575b838310612bfd575b50828210612be1575b5010612bcd575b5090500387611b38565b60005b8651811015612bb6576001600160e01b031980612b8f838a61281d565b511690841614612ba757612ba2906124d9565b612b72565b50505061293691929350611cb4565b5093509350612bc591506124d9565b919091612ab8565b6001600160e01b0319168152018038612b65565b83811b6001600160e01b03191685529093019260010184612b5e565b84901b6001600160e01b0319168552909301926001018438612b55565b606085901b6001600160e01b031916865294810194600190920191612b4d565b608085901b6001600160e01b031916865294810194600190920191612b45565b60a085901b6001600160e01b031916865294810194600190920191612b3d565b60c085901b6001600160e01b031916865294810194600190920191612b35565b60e085901b6001600160e01b031916865294810194600190920191612b2d565b97936001610100600892875463ffffffff60e01b60e0918181841b1684528b828260c0928282851b16818901528d838360a0928282851b16818d01528b8383608092606090818484871b169101521b16908d01521b16908901521b1690850152169082015201950191019097612b13565b15612d3257565b60405162461bcd60e51b8152602060048201526016602482015275139bc8199858d95d081cd95b1958dd1bdc9cc81cd95d60521b6044820152606490fd5b15612d7757565b60405162461bcd60e51b8152602060048201526016602482015275092dcecc2d8d2c840e6cad8cac6e8dee440d2dcc8caf60531b6044820152606490fd5b6001600160a01b0390811660008181526007602052604081205490948594909392612df792612de5901515612d2b565b85526007602052604085205411612d70565b6005541682602083519301915af190612e0e612032565b90611ed683612706565b6001600160a01b0390811660008181526007602052604081205490948594909392612e4892612de5901515612d2b565b60055416602082519201905afa90612e0e612032565b6040516370a0823160e01b81523060048201526020816024817f00000000000000000000000000000000000000000000000000000000000000006001600160a01b03165afa908115612ee357600091612eb5575090565b906020823d8211612edb575b81612ece60209383611b38565b8101031261037157505190565b3d9150612ec1565b6040513d6000823e3d90fd5b60025460018101809111611d8657612f05612e5e565b9060018201809211611d8657611bec92613166565b60025460018101809111611d8657612f30612e5e565b9060018201809211611d8657611bec92613264565b612f4d612e5e565b60018101809111611d86576002549060018201809211611d8657611bec92613264565b612f78612e5e565b60018101809111611d86576002549060018201809211611d8657611bec92613166565b916001600160a01b038084169283156121ed57169283156130475760009083825281602052604082205490838210613015575091604082827fddf252ad1be2c89b69c2b068fc378daa952ba7f163c4a11628f55a4df523b3ef958760209652828652038282205586815220818154019055604051908152a3565b60405163391434e360e21b81526001600160a01b03919091166004820152602481019190915260448101839052606490fd5b60405163ec442f0560e01b815260006004820152602490fd5b9160018060a01b03809316916000938385526001602052604093848620918316918287526020528486205492600019840361309f575b50505050505050565b848410613103575080156130eb5781156130d357855260016020528385209085526020520391205538808080808080613096565b8451634a1406b160e11b815260048101879052602490fd5b845163e602df0560e01b815260048101879052602490fd5b8551637dc7a0d960e11b81526001600160a01b039190911660048201526024810184905260448101859052606490fd5b612710606461314183613182565b920961314a5790565b60018101809111611d865790565b6127746064613141836131fc565b9190613173828285613264565b928215612282570961314a5790565b60648102600019606483098180821091039080820391146131f257612710818111156131e05760647fbc01a36e2eb1c432ca57a786c226809d495182a9930be0ded288ce703afb7e91940990828211900360fc1b910360041c170290565b60405163227bc15360e01b8152600490fd5b5061271091500490565b606481026000196064830981808210910390808203911461325a57612774818111156131e05760647f2c0067d1c49674ffe60b8eda62c0067d1c49674ffe60b8eda62c0067d1c49675940990828211900360fe1b910360021c170290565b5061277491500490565b909182820291600019848209938380861095039480860395146132da57848311156131e05782910981600003821680920460028082600302188083028203028083028203028083028203028083028203028083028203028092029003029360018380600003040190848311900302920304170290565b505090611bec925061227856fea2646970667358221220d96ebba375532aa26b64c850e109fb76109023c8fccdca6593c5a6e7431dc3b664736f6c63430008140033",
    "linkReferences": {}
  },
  "methodIdentifiers": {
    "addToPortfolio(address)": "d0dfd911",
    "allowance(address,address)": "dd62ed3e",
    "approve(address,uint256)": "095ea7b3",
    "approveSpender(address,address,uint256)": "22604de2",
    "asset()": "38d52e0f",
    "balanceOf(address)": "70a08231",
    "calculateDailyFee()": "eccaf26a",
    "calculatePerformanceFee()": "4655e987",
    "calculateShareValue()": "558311a1",
    "callFacet(address,uint256,bytes)": "e5cc9d38",
    "chargeManagementFee()": "d3a8d718",
    "chargePerformanceFee()": "95856945",
    "convertToAssets(uint256)": "07a2d13a",
    "convertToShares(uint256)": "c6e6f592",
    "decimals()": "313ce567",
    "deposit(uint256,address)": "6e553f65",
    "diamond()": "f0b7db4e",
    "entryFeeBasisPoints()": "ba0af7a9",
    "exitFeeBasisPoints()": "86915573",
    "facetSelectorCount(address)": "d5383eb9",
    "facetSelectors(address,uint256)": "0c5fe450",
    "facets(uint256)": "94f2a937",
    "getAccumulatedFee()": "93d21783",
    "getFacetAddress(bytes4)": "7a070c2d",
    "getHighWaterMark()": "b4e29e7a",
    "getManagementFeeRate()": "d19ca762",
    "getPerformanceFeeRate()": "e36448d7",
    "getPortfolio()": "d3d03458",
    "getPortfolioValue()": "bb0498de",
    "getValueInUSD(address)": "f96a7129",
    "investors(uint256)": "3feb5f2b",
    "isPartOfPortfolio(address)": "91a67526",
    "managementInfo()": "85631ace",
    "manager()": "481c6a75",
    "maxDeposit(address)": "402d267d",
    "maxMint(address)": "c63d75b6",
    "maxRedeem(address)": "d905777e",
    "maxWithdraw(address)": "ce96cb77",
    "mint(uint256,address)": "94bf804d",
    "name()": "06fdde03",
    "noOfInvestors()": "9075825b",
    "portfolio(uint256)": "2e63a156",
    "previewDeposit(uint256)": "ef8b30f7",
    "previewMint(uint256)": "b3d7f6b9",
    "previewRedeem(uint256)": "4cdad506",
    "previewWithdraw(uint256)": "0a28a477",
    "redeem(uint256,address,address)": "ba087652",
    "removeFromPortfolio(address)": "3203dfaf",
    "setDiamond(address)": "76ed535a",
    "setFacet(address)": "24bc8c93",
    "setFacetSelectors(address,bytes4[])": "9d19623b",
    "setManagementFeeRate(uint256)": "cf04327a",
    "setPerformanceFeeRate(uint256)": "127f3b61",
    "setSelector(bytes4)": "37149a4d",
    "staticCallFacet(address,uint256,bytes)": "1fc181e0",
    "symbol()": "95d89b41",
    "totalAssets()": "01e1d114",
    "totalSupply()": "18160ddd",
    "transfer(address,uint256)": "a9059cbb",
    "transferFrom(address,address,uint256)": "23b872dd",
    "type1CallFacet(address,address,address,uint256,uint256,bytes)": "0d1133d0",
    "type2CallFacet(address,uint256,bytes)": "6726d55d",
    "type3CallFacet(address,uint256,bytes)": "bc86951c",
    "withdraw(uint256,address,address)": "b460af94"
  },
  "id": 83
}